:100000000C942A000C9447000C9447000C94470071
:100010000C9447000C9447000C9447000C94470044
:100020000C9447000C9447000C9447000C94470034
:100030000C9447000C9449000C9447000C94470022
:100040000C9447000C9447000C9447000C94470014
:100050000C94470011241FBECFE5D8E0DEBFCDBF12
:1000600012E0A0E6B0E0EAE2F6E202C005900D92EE
:10007000AE3AB107D9F725E0AEEAB2E001C01D9271
:10008000A93DB207E1F70E9488090C9413130C9460
:1000900000001F920F9200905F000F9211242F9387
:1000A0003F934F935F936F937F938F939F93AF9300
:1000B000BF93EF93FF93CF93DF931F92CDB7DEB73C
:1000C0000E94011189838981882F90E08A309105EF
:1000D00019F00D9761F014C08091D2059091D3056D
:1000E000029720F081E08093AF021CC01BC080917A
:1000F000D2059091D30584529C4FFC01108212C00E
:100100008091D2059091D30584529C4F2981FC01A6
:1001100020838091D2059091D30501969093D305C9
:100120008093D2050F90DF91CF91FF91EF91BF9116
:10013000AF919F918F917F916F915F914F913F917F
:100140002F910F9000925F000F901F901895CF9302
:10015000DF93CDB7DEB78091D2059091D305AC0186
:1001600060E070E08CED93E00E949A121092AF0272
:100170001092D3051092D205DF91CF910895CF93BD
:10018000DF931F92CDB7DEB700008091AF028823C6
:10019000E1F36AE670E08CED93E00E943A0B813067
:1001A00019F481E0898359C06DE670E08CED93E02D
:1001B0000E943A0B813019F483E089834EC067E7CF
:1001C00070E08CED93E00E943A0B813019F482E0EC
:1001D000898343C06DE770E08CED93E00E943A0B99
:1001E000813019F484E0898338C06FE770E08CEDCA
:1001F00093E00E943A0B813019F485E089832DC089
:1002000065E870E08CED93E00E943A0B813019F4C0
:1002100086E0898322C061E970E08CED93E00E9462
:100220003A0B813019F487E0898317C061EA70E0E6
:100230008CED93E00E943A0B813019F488E08983B9
:100240000CC060EB70E08CED93E00E943A0B8130C3
:1002500019F489E0898301C019820E94A70089816D
:100260000F90DF91CF9108950F931F93CF93DF935A
:10027000CDB7DEB7CE57D1090FB6F894DEBF0FBEAB
:10028000CDBF1092AF021092D3051092D20544EF69
:1002900051E060E070E08CED93E00E949A120E94C1
:1002A000BE1045EB50E061E080E00E94821040EC1F
:1002B00050E061E081E00E9482108FEC90E00E94AB
:1002C0001B0B80E090E0AAE7B4E489839A83AB83B8
:1002D000BC8320E030E04AEF54E469817A818B816D
:1002E0009C810E940512DC01CB018D839E83AF832C
:1002F000B88720E030E040E85FE36D817E818F8148
:1003000098850E947F1188232CF481E090E09A87E1
:1003100089873FC020E03FEF4FE757E46D817E8142
:100320008F8198850E94001218164CF520E030E06D
:1003300040E251E469817A818B819C810E9405129F
:10034000DC01CB01BC01CD010E948411DC01CB0199
:100350009A8789870FC088EC90E09C878B878B8574
:100360009C850197F1F79C878B8789859A850197F2
:100370009A87898789859A85892B69F714C06D8149
:100380007E818F8198850E948411DC01CB019A8740
:10039000898789859A859E878D878D859E8501971A
:1003A000F1F79E878D8782ED90E00E941B0B0E94E3
:1003B000BF008093D8059091D80582E09817B9F7CF
:1003C00080E090E8ABE3B5E48F87988BA98BBA8B7C
:1003D00020E030E04AEF54E46F85788989899A8972
:1003E0000E940512DC01CB018B8B9C8BAD8BBE8BED
:1003F00020E030E040E85FE36B897C898D899E894D
:100400000E947F1188232CF481E090E0988F8F8BDD
:100410003FC020E03FEF4FE757E46B897C898D892F
:100420009E890E94001218164CF520E030E040E250
:1004300051E46F85788989899A890E940512DC01C7
:10044000CB01BC01CD010E948411DC01CB01988F4E
:100450008F8B0FC088EC90E09A8F898F898D9A8D51
:100460000197F1F79A8F898F8F89988D0197988FCF
:100470008F8B8F89988D892B69F714C06B897C8944
:100480008D899E890E948411DC01CB01988F8F8B0E
:100490008F89988D9C8F8B8F8B8D9C8D0197F1F719
:1004A0009C8F8B8F0E94BE1049ED50E061E080E090
:1004B0000E94821040EC50E061E081E00E948210D6
:1004C0008CEE90E00E941B0B80E090E0AAE7B4E481
:1004D0008D8F9E8FAF8FB8A320E030E04AEF54E4B9
:1004E0006D8D7E8D8F8D98A10E940512DC01CB0150
:1004F00089A39AA3ABA3BCA320E030E040E85FE36C
:1005000069A17AA18BA19CA10E947F1188232CF460
:1005100081E090E09EA38DA33FC020E03FEF4FE736
:1005200057E469A17AA18BA19CA10E940012181620
:100530004CF520E030E040E251E46D8D7E8D8F8DF2
:1005400098A10E940512DC01CB01BC01CD010E94E3
:100550008411DC01CB019EA38DA30FC088EC90E039
:1005600098A78FA38FA198A50197F1F798A78FA3BC
:100570008DA19EA101979EA38DA38DA19EA1892BE4
:1005800069F714C069A17AA18BA19CA10E94841172
:10059000DC01CB019EA38DA38DA19EA19AA789A763
:1005A00089A59AA50197F1F79AA789A70E94BE107D
:1005B00045EF50E061E080E00E94821040EC50E0A6
:1005C00061E081E00E94821082E091E00E941B0BBA
:1005D00000000E94BF00982F81E09817D1F780E0BB
:1005E00090E0AAE7B4E48BA79CA7ADA7BEA720E044
:1005F00030E04AEF54E46BA57CA58DA59EA50E9432
:100600000512DC01CB018FA798ABA9ABBAAB20E0F8
:1006100030E040E85FE36FA578A989A99AA90E9414
:100620007F1188232CF481E090E09CAB8BAB3FC022
:1006300020E03FEF4FE757E46FA578A989A99AA971
:100640000E94001218164CF520E030E040E251E420
:100650006BA57CA58DA59EA50E940512DC01CB0192
:10066000BC01CD010E948411DC01CB019CAB8BABA2
:100670000FC088EC90E09EAB8DAB8DA99EA9019731
:10068000F1F79EAB8DAB8BA99CA901979CAB8BAB73
:100690008BA99CA9892B69F714C06FA578A989A992
:1006A0009AA90E948411DC01CB019CAB8BAB8BA976
:1006B0009CA998AF8FAB8FA998AD0197F1F798AF30
:1006C0008FAB0E94BE104EE051E061E080E00E94DE
:1006D000821041E251E061E081E00E94821040EC32
:1006E00050E066E081E00E94821086E291E00E9484
:1006F0001B0B00000E94BF00982F81E09817D1F7D4
:1007000080E090E0AAE7B4E489AF9AAFABAFBCAFAA
:1007100020E030E04AEF54E469AD7AAD8BAD9CAD9A
:100720000E940512DC01CB019E01235C3F4FF901C1
:1007300080839183A283B38320E030E040E85FE3CD
:10074000CE01CD96FC0160817181828193810E94EE
:100750007F1188234CF4CE018F5B9F4F21E030E066
:10076000FC013183208367C020E03FEF4FE757E46F
:10077000CE01CD96FC0160817181828193810E94BE
:10078000001218160CF046C020E030E040E251E4C0
:1007900069AD7AAD8BAD9CAD0E940512DC01CB0139
:1007A0008E010F5B1F4FBC01CD010E948411DC0143
:1007B000CB01F8019183808324C0CE018D5B9F4FD4
:1007C00028EC30E0FC0131832083CE018D5B9F4F0C
:1007D000FC01808191810197F1F79E012D5B3F4FD4
:1007E000F90191838083CE018F5B9F4F9E012F5B28
:1007F0003F4FF9012081318121503109FC013183C2
:100800002083CE018F5B9F4FFC0180819181892BDA
:10081000A1F62BC08E010F5B1F4FCE01CD96FC01C0
:1008200060817181828193810E948411DC01CB01FE
:10083000F80191838083CE018B5B9F4F9E012F5BDC
:100840003F4FF90120813181FC0131832083CE01AA
:100850008B5B9F4FFC01808191810197F1F79E0195
:100860002B5B3F4FF901918380830E94BE1042E3CE
:1008700051E061E080E00E94821040EC50E061E0D5
:1008800081E00E94821083E491E00E94131182E2D1
:100890000E94E7108BE292E00E9413118DE491E038
:1008A0000E9413118FE292E00E94131182E20E94D3
:1008B000E7100E942D0B9E01295B3F4F80E090E0E6
:1008C000AAEFB4E4F90180839183A283B3838E01FC
:1008D000055B1F4FCE01895B9F4F20E030E04AEF60
:1008E00054E4FC0160817181828193810E94051230
:1008F000DC01CB01F80180839183A283B383CE0115
:10090000855B9F4F20E030E040E85FE3FC016081C1
:100910007181828193810E947F1188234CF4CE01E2
:10092000815B9F4F21E030E0FC01318320836DC06B
:10093000CE01855B9F4F20E03FEF4FE757E4FC017E
:1009400060817181828193810E94001218160CF0DF
:100950004AC0CE01895B9F4F20E030E040E251E485
:10096000FC0160817181828193810E940512DC010A
:10097000CB018E01015B1F4FBC01CD010E94841190
:10098000DC01CB01F8019183808324C0CE018F5A12
:100990009F4F28EC30E0FC0131832083CE018F5A39
:1009A0009F4FFC01808191810197F1F79E012F5AA1
:1009B0003F4FF90191838083CE01815B9F4F9E0160
:1009C000215B3F4FF9012081318121503109FC0128
:1009D00031832083CE01815B9F4FFC018081918117
:1009E000892BA1F62CC08E01015B1F4FCE01855BC8
:1009F0009F4FFC0160817181828193810E948411EB
:100A0000DC01CB01F80191838083CE018D5A9F4F89
:100A10009E01215B3F4FF90120813181FC0131832F
:100A20002083CE018D5A9F4FFC01808191810197D7
:100A3000F1F79E012D5A3F4FF901918380830E9467
:100A4000BF008093D8059091D80581E0981751F0A8
:100A50009091D80585E0981729F09091D80589E004
:100A6000981769F79091D80581E0981709F03FC071
:100A70000E94BE1041E551E061E080E00E948210DA
:100A800000009E012D593F4F80E090E0AAE7B4E4BA
:100A9000F90180839183A283B3838E0109591F4F8B
:100AA000CE018D599F4F20E030E04AEF54E4FC0125
:100AB00060817181828193810E940512DC01CB01EA
:100AC000F80180839183A283B383CE0189599F4F1C
:100AD00020E030E040E85FE3FC01608171818281C9
:100AE00093810E947F1188230CF4CCC0D4C049E5C7
:100AF00051E061E080E00E9482109E012B5A3F4F3E
:100B000080E090E0AAE7B4E4F90180839183A283B6
:100B1000B3838E01075A1F4FCE018B5A9F4F20E09F
:100B200030E04AEF54E4FC0160817181828193815D
:100B30000E940512DC01CB01F80180839183A2831E
:100B4000B383CE01875A9F4F20E030E040E85FE357
:100B5000FC0160817181828193810E947F118823D1
:100B60004CF4CE01835A9F4F21E030E0FC013183E9
:100B700020836DC0CE01875A9F4F20E03FEF4FE7A3
:100B800057E4FC0160817181828193810E9400128F
:100B900018160CF04AC0CE018B5A9F4F20E030E06F
:100BA00040E251E4FC0160817181828193810E9465
:100BB0000512DC01CB018E01035A1F4FBC01CD0190
:100BC0000E948411DC01CB01F8019183808324C051
:100BD000CE01815A9F4F28EC30E0FC013183208305
:100BE000CE01815A9F4FFC01808191810197F1F7DD
:100BF0009E01215A3F4FF90191838083CE01835A90
:100C00009F4F9E01235A3F4FF9012081318121508E
:100C10003109FC0131832083CE01835A9F4FFC01AF
:100C200080819181892BA1F62CC08E01035A1F4F20
:100C3000CE01875A9F4FFC0160817181828193812F
:100C40000E948411DC01CB01F80191838083CE01E5
:100C50008F599F4F9E01235A3F4FF90120813181C7
:100C6000FC0131832083CE018F599F4FFC0180818D
:100C700091810197F1F79E012F593F4FF90191831F
:100C80008083F3CDCE0185599F4F21E030E0FC01F8
:100C9000318320836DC0CE0189599F4F20E03FEF03
:100CA0004FE757E4FC0160817181828193810E944A
:100CB000001218160CF04AC0CE018D599F4F20E04B
:100CC00030E040E251E4FC016081718182819381D6
:100CD0000E940512DC01CB018E0105591F4FBC019A
:100CE000CD010E948411DC01CB01F8019183808346
:100CF00024C0CE0183599F4F28EC30E0FC013183A2
:100D00002083CE0183599F4FFC01808191810197FF
:100D1000F1F79E0123593F4FF90191838083CE0162
:100D200085599F4F9E0125593F4FF90120813181FF
:100D300021503109FC0131832083CE0185599F4F19
:100D4000FC0180819181892BA1F62CC08E0105596F
:100D50001F4FCE0189599F4FFC01608171818281B3
:100D600093810E948411DC01CB01F801918380837F
:100D7000CE0181599F4F9E0125593F4FF901208196
:100D80003181FC0131832083CE0181599F4FFC01C9
:100D9000808191810197F1F79E0121593F4FF9011F
:100DA000918380830E94BE1046E651E061E080E0BE
:100DB0000E9482109E012F583F4F80E090E0AAE7EA
:100DC000B4E4F90180839183A283B3838E010B582D
:100DD0001F4FCE018F589F4F20E030E04AEF54E480
:100DE000FC0160817181828193810E940512DC0186
:100DF000CB01F80180839183A283B383CE018B580A
:100E00009F4F20E030E040E85FE3FC0160817181AA
:100E1000828193810E947F1188234CF4CE018758F0
:100E20009F4F21E030E0FC01318320836DC0CE0173
:100E30008B589F4F20E03FEF4FE757E4FC01608164
:100E40007181828193810E94001218160CF04AC0B1
:100E5000CE018F589F4F20E030E040E251E4FC018A
:100E600060817181828193810E940512DC01CB0136
:100E70008E0107581F4FBC01CD010E948411DC0177
:100E8000CB01F8019183808324C0CE0185589F4F08
:100E900028EC30E0FC0131832083CE0185589F4F40
:100EA000FC01808191810197F1F79E0125583F4F08
:100EB000F90191838083CE0187589F4F9E01275867
:100EC0003F4FF9012081318121503109FC013183EB
:100ED0002083CE0187589F4FFC0180819181892B0F
:100EE000A1F62CC08E0107581F4FCE018B589F4F83
:100EF000FC0160817181828193810E948411DC01F7
:100F0000CB01F80191838083CE0183589F4F9E01CE
:100F100027583F4FF90120813181FC013183208323
:100F2000CE0183589F4FFC01808191810197F1F799
:100F30009E0123583F4FF901918380830E94A700AF
:100F4000C258DF4F0FB6F894DEBF0FBECDBFDF91A2
:100F5000CF911F910F910895CF93DF93CDB7DEB757
:100F600000006CE771E08CED93E00E943A0B88235F
:100F7000C1F363E871E08CED93E00E943A0B8823A3
:100F800051F088E390E028E330E0F901208121600E
:100F9000FC01208309C088E390E028E330E0F901F8
:100FA00020812E7FFC01208369E871E08CED93E0C5
:100FB0000E943A0B882351F088E390E028E330E068
:100FC000F90120812260FC01208309C088E390E0C0
:100FD00028E330E0F90120812D7FFC0120836FE8B8
:100FE00071E08CED93E00E943A0B882351F088E386
:100FF00090E028E330E0F90120812460FC012083A7
:1010000009C088E390E028E330E0F90120812B7FDC
:10101000FC012083DF91CF910895CF93DF93CDB76B
:10102000DEB7AA970FB6F894DEBF0FBECDBF0E9401
:10103000A7008BE392E00E941B0B80E090E0AAEFF8
:10104000B4E489839A83AB83BC8320E030E04AEF29
:1010500054E469817A818B819C810E940512DC01B4
:10106000CB018D839E83AF83B88720E030E040E8DA
:101070005FE36D817E818F8198850E947F11882337
:101080002CF481E090E09A8789873FC020E03FEF11
:101090004FE757E46D817E818F8198850E94001211
:1010A00018164CF520E030E040E251E469817A8185
:1010B0008B819C810E940512DC01CB01BC01CD011A
:1010C0000E948411DC01CB019A8789870FC088ECCC
:1010D00090E09C878B878B859C850197F1F79C8797
:1010E0008B8789859A8501979A87898789859A85CB
:1010F000892B69F714C06D817E818F8198850E944C
:101100008411DC01CB019A87898789859A859E871E
:101110008D878D859E850197F1F79E878D8788E95C
:1011200091E00E941B0B80E090E0AAEFB4E48F876F
:10113000988BA98BBA8B20E030E04AEF54E46F859E
:10114000788989899A890E940512DC01CB018B8BF1
:101150009C8BAD8BBE8B20E030E040E85FE36B8979
:101160007C898D899E890E947F1188232CF481E0DF
:1011700090E0988F8F8B3FC020E03FEF4FE757E420
:101180006B897C898D899E890E94001218164CF506
:1011900020E030E040E251E46F85788989899A89BE
:1011A0000E940512DC01CB01BC01CD010E9484111B
:1011B000DC01CB01988F8F8B0FC088EC90E09A8F69
:1011C000898F898D9A8D0197F1F79A8F898F8F89F1
:1011D000988D0197988F8F8B8F89988D892B69F7C0
:1011E00014C06B897C898D899E890E948411DC01E1
:1011F000CB01988F8F8B8F89988D9C8F8B8F8B8D48
:101200009C8D0197F1F79C8F8B8F0E94A70089EA34
:1012100091E00E94131180E090E0AAE7B4E48D8F82
:101220009E8FAF8FB8A320E030E04AEF54E46D8D7D
:101230007E8D8F8D98A10E940512DC01CB0189A3C0
:101240009AA3ABA3BCA320E030E040E85FE369A130
:101250007AA18BA19CA10E947F1188232CF481E0AC
:1012600090E09EA38DA33FC020E03FEF4FE757E4FF
:1012700069A17AA18BA19CA10E94001218164CF5BD
:1012800020E030E040E251E46D8D7E8D8F8D98A19D
:101290000E940512DC01CB01BC01CD010E9484112A
:1012A000DC01CB019EA38DA30FC088EC90E098A732
:1012B0008FA38FA198A50197F1F798A78FA38DA170
:1012C0009EA101979EA38DA38DA19EA1892B69F755
:1012D00014C069A17AA18BA19CA10E948411DC0198
:1012E000CB019EA38DA38DA19EA19AA789A789A5B5
:1012F0009AA50197F1F79AA789A70E94AC07AA9629
:101300000FB6F894DEBF0FBECDBFDF91CF91089529
:10131000CF93DF93CDB7DEB7AA970FB6F894DEBFB1
:101320000FBECDBF87E390E02FEFFC01208388E361
:1013300090E02FEFFC01208380E090E0AAE7B4E486
:1013400089839A83AB83BC8320E030E04AEF54E486
:1013500069817A818B819C810E940512DC01CB011D
:101360008D839E83AF83B88720E030E040E85FE361
:101370006D817E818F8198850E947F1188232CF456
:1013800081E090E09A8789873FC020E03FEF4FE7F8
:1013900057E46D817E818F8198850E940012181616
:1013A0004CF520E030E040E251E469817A818B81A4
:1013B0009C810E940512DC01CB01BC01CD010E9481
:1013C0008411DC01CB019A8789870FC088EC90E0FB
:1013D0009C878B878B859C850197F1F79C878B87F2
:1013E00089859A8501979A87898789859A85892B26
:1013F00069F714C06D817E818F8198850E94841168
:10140000DC01CB019A87898789859A859E878D879C
:101410008D859E850197F1F79E878D8788E390E003
:10142000FC0110820E94C8108FE590E02FE530E0AB
:10143000F90120812068FC0120830E94FE0B8CE0D2
:101440000E941C0C0E94BE104DE152E061E080E061
:101450000E94821080E090E0AAEFB3E48F87988B1F
:10146000A98BBA8B20E030E04AEF54E46F8578898D
:1014700089899A890E940512DC01CB018B8B9C8B98
:10148000AD8BBE8B20E030E040E85FE36B897C8968
:101490008D899E890E947F1188232CF481E090E041
:1014A000988F8F8B3FC020E03FEF4FE757E46B8969
:1014B0007C898D899E890E94001218164CF520E0C7
:1014C00030E040E251E46F85788989899A890E94E9
:1014D0000512DC01CB01BC01CD010E948411DC01AD
:1014E000CB01988F8F8B0FC088EC90E09A8F898FFB
:1014F000898D9A8D0197F1F79A8F898F8F89988DB1
:101500000197988F8F8B8F89988D892B69F714C0DD
:101510006B897C898D899E890E948411DC01CB01B5
:10152000988F8F8B8F89988D9C8F8B8F8B8D9C8DB7
:101530000197F1F79C8F8B8F68E081E00E944F103C
:101540000E94340182E292E00E941B0B80E090E056
:10155000AAE7B4E48D8F9E8FAF8FB8A320E030E070
:101560004AEF54E46D8D7E8D8F8D98A10E940512F7
:10157000DC01CB0189A39AA3ABA3BCA320E030E09C
:1015800040E85FE369A17AA18BA19CA10E947F1131
:1015900088232CF481E090E09EA38DA33FC020E03F
:1015A0003FEF4FE757E469A17AA18BA19CA10E946C
:1015B000001218164CF520E030E040E251E46D8D49
:1015C0007E8D8F8D98A10E940512DC01CB01BC019C
:1015D000CD010E948411DC01CB019EA38DA30FC01D
:1015E00088EC90E098A78FA38FA198A50197F1F7B9
:1015F00098A78FA38DA19EA101979EA38DA38DA1D6
:101600009EA1892B69F714C069A17AA18BA19CA125
:101610000E948411DC01CB019EA38DA38DA19EA10C
:101620009AA789A789A59AA50197F1F79AA789A7EB
:101630000E940D088BCFCF93DF9300D0CDB7DEB7DC
:101640009A83898389819A810E9413110E942D0BAC
:101650000F900F90DF91CF910895CF93DF93CDB787
:10166000DEB78DE00E94E7108AE00E94E710DF916C
:10167000CF910895CF93DF93CDB7DEB72C970FB6F8
:10168000F894DEBF0FBECDBF9A8789877C876B87B2
:101690001A8219821C821B821E821D8218861F825A
:1016A00089859A850E94A1129E838D838B859C8556
:1016B0000E94A11298878F832F8138858D819E810A
:1016C0008217930710F480E032C01C821B8227C06F
:1016D00029853A858B819C81820F931FFC01408173
:1016E0002B853C8589819A81820F931FFC01808123
:1016F000481771F489819A8101969A8389832F8191
:10170000388589819A812817390721F481E00FC033
:101710001A8219828B819C8101969C838B832B81F9
:101720003C818D819E812817390790F280E02C96AC
:101730000FB6F894DEBF0FBECDBFDF91CF910895F5
:10174000EF92FF920F93CF93DF93CDB7DEB72F9732
:101750000FB6F894DEBF0FBECDBF9F838E8379870F
:1017600068874A873C872B870D87FF86EE8619821C
:10177000288539858E819F81B9010E94B9129C010B
:101780008A85882F90E0820F931F9B838A832B8505
:101790003C858A819B81B9010E94B9129C018D858B
:1017A000882F90E0820F931F9D838C832C813D8135
:1017B0008A819B81A901481B590BCA0189838981B0
:1017C000482F50E02A813B818E859F85B9010E9478
:1017D000AA128981882F90E02E853F85820F931F62
:1017E000FC0110822F960FB6F894DEBF0FBECDBF5E
:1017F000DF91CF910F91FF90EF900895CF93DF93FA
:10180000CDB7DEB784E390E02FEFFC01208381E3C6
:1018100090E021E330E0F90120812067FC01208382
:1018200088E30E941C0C8CE00E941C0C81E00E944A
:101830001C0CDF91CF910895CF93DF93CDB7DEB726
:10184000E9970FB6F894DEBF0FBECDBF89AF82E334
:1018500090E022E330E0F90120812F7EFC0120831B
:1018600082E390E022E330E0F90120812F7DFC014A
:10187000208380E090E0A0E8BFE389839A83AB8374
:10188000BC8320E030E04AEF54E469817A818B81A7
:101890009C810E940512DC01CB018D839E83AF8366
:1018A000B88720E030E040E85FE36D817E818F8182
:1018B00098850E947F1188232CF481E090E09A871C
:1018C00089873FC020E03FEF4FE757E46D817E817D
:1018D0008F8198850E94001218164CF520E030E0A8
:1018E00040E251E469817A818B819C810E940512DA
:1018F000DC01CB01BC01CD010E948411DC01CB01D4
:101900009A8789870FC088EC90E09C878B878B85AE
:101910009C850197F1F79C878B8789859A8501972C
:101920009A87898789859A85892B69F714C06D8183
:101930007E818F8198850E948411DC01CB019A877A
:10194000898789859A859E878D878D859E85019754
:10195000F1F79E878D8782E390E022E330E0F90182
:1019600020812064FC01208380E090E0A0E8BFE3B8
:101970008F87988BA98BBA8B20E030E04AEF54E434
:101980006F85788989899A890E940512DC01CB01CB
:101990008B8B9C8BAD8BBE8B20E030E040E85FE30F
:1019A0006B897C898D899E890E947F1188232CF404
:1019B00081E090E0988F8F8B3FC020E03FEF4FE7B2
:1019C00057E46B897C898D899E890E9400121816C4
:1019D0004CF520E030E040E251E46F857889898958
:1019E0009A890E940512DC01CB01BC01CD010E9445
:1019F0008411DC01CB01988F8F8B0FC088EC90E0B5
:101A00009A8F898F898D9A8D0197F1F79A8F898F97
:101A10008F89988D0197988F8F8B8F89988D892BBF
:101A200069F714C06B897C898D899E890E94841115
:101A3000DC01CB01988F8F8B8F89988D9C8F8B8F3A
:101A40008B8D9C8D0197F1F79C8F8B8F85E390E0B8
:101A500029ADFC01208380E090E0A0E8BFE38D8FFA
:101A60009E8FAF8FB8A320E030E04AEF54E46D8D35
:101A70007E8D8F8D98A10E940512DC01CB0189A378
:101A80009AA3ABA3BCA320E030E040E85FE369A1E8
:101A90007AA18BA19CA10E947F1188232CF481E064
:101AA00090E09EA38DA33FC020E03FEF4FE757E4B7
:101AB00069A17AA18BA19CA10E94001218164CF575
:101AC00020E030E040E251E46D8D7E8D8F8D98A155
:101AD0000E940512DC01CB01BC01CD010E948411E2
:101AE000DC01CB019EA38DA30FC088EC90E098A7EA
:101AF0008FA38FA198A50197F1F798A78FA38DA128
:101B00009EA101979EA38DA38DA19EA1892B69F70C
:101B100014C069A17AA18BA19CA10E948411DC014F
:101B2000CB019EA38DA38DA19EA19AA789A789A56C
:101B30009AA50197F1F79AA789A782E390E022E39B
:101B400030E0F90120812F7BFC01208380E090E0D0
:101B5000A0E8BFE38BA79CA7ADA7BEA720E030E01D
:101B60004AEF54E46BA57CA58DA59EA50E940512A5
:101B7000DC01CB018FA798ABA9ABBAAB20E030E07A
:101B800040E85FE36FA578A989A99AA90E947F110F
:101B900088232CF481E090E09CAB8BAB3FC020E02D
:101BA0003FEF4FE757E46FA578A989A99AA90E944A
:101BB000001218164CF520E030E040E251E46BA52D
:101BC0007CA58DA59EA50E940512DC01CB01BC0160
:101BD000CD010E948411DC01CB019CAB8BAB0FC00B
:101BE00088EC90E09EAB8DAB8DA99EA90197F1F793
:101BF0009EAB8DAB8BA99CA901979CAB8BAB8BA9A2
:101C00009CA9892B69F714C06FA578A989A99AA9FD
:101C10000E948411DC01CB019CAB8BAB8BA99CA9EE
:101C200098AF8FAB8FA998AD0197F1F798AF8FABB5
:101C3000E9960FB6F894DEBF0FBECDBFDF91CF910E
:101C40000895CF93DF93CDB7DEB7E9970FB6F89439
:101C5000DEBF0FBECDBF89AF82E390E022E330E06C
:101C6000F90120812061FC01208382E390E022E3DE
:101C700030E0F90120812F7DFC01208380E090E09D
:101C8000A0E8BFE389839A83AB83BC8320E030E084
:101C90004AEF54E469817A818B819C810E9405120C
:101CA000DC01CB018D839E83AF83B88720E030E0D9
:101CB00040E85FE36D817E818F8198850E947F116E
:101CC00088232CF481E090E09A8789873FC020E048
:101CD0003FEF4FE757E46D817E818F8198850E94A9
:101CE000001218164CF520E030E040E251E4698122
:101CF0007A818B819C810E940512DC01CB01BC01A1
:101D0000CD010E948411DC01CB019A8789870FC025
:101D100088EC90E09C878B878B859C850197F1F7F9
:101D20009C878B8789859A8501979A87898789857A
:101D30009A85892B69F714C06D817E818F81988582
:101D40000E948411DC01CB019A87898789859A8555
:101D50009E878D878D859E850197F1F79E878D875C
:101D600082E390E022E330E0F90120812064FC016D
:101D7000208380E090E0A0E8BFE38F87988BA98B59
:101D8000BA8B20E030E04AEF54E46F857889898986
:101D90009A890E940512DC01CB018B8B9C8BAD8B49
:101DA000BE8B20E030E040E85FE36B897C898D8961
:101DB0009E890E947F1188232CF481E090E0988F07
:101DC0008F8B3FC020E03FEF4FE757E46B897C8962
:101DD0008D899E890E94001218164CF520E030E093
:101DE00040E251E46F85788989899A890E940512B9
:101DF000DC01CB01BC01CD010E948411DC01CB01CF
:101E0000988F8F8B0FC088EC90E09A8F898F898D87
:101E10009A8D0197F1F79A8F898F8F89988D019705
:101E2000988F8F8B8F89988D892B69F714C06B8958
:101E30007C898D899E890E948411DC01CB01988F59
:101E40008F8B8F89988D9C8F8B8F8B8D9C8D01971D
:101E5000F1F79C8F8B8F85E390E029ADFC01208307
:101E600080E090E0A0E8BFE38D8F9E8FAF8FB8A396
:101E700020E030E04AEF54E46D8D7E8D8F8D98A187
:101E80000E940512DC01CB0189A39AA3ABA3BCA3DA
:101E900020E030E040E85FE369A17AA18BA19CA13A
:101EA0000E947F1188232CF481E090E09EA38DA3F3
:101EB0003FC020E03FEF4FE757E469A17AA18BA133
:101EC0009CA10E94001218164CF520E030E040E280
:101ED00051E46D8D7E8D8F8D98A10E940512DC01DD
:101EE000CB01BC01CD010E948411DC01CB019EA37A
:101EF0008DA30FC088EC90E098A78FA38FA198A521
:101F00000197F1F798A78FA38DA19EA101979EA39A
:101F10008DA38DA19EA1892B69F714C069A17AA117
:101F20008BA19CA10E948411DC01CB019EA38DA3F7
:101F30008DA19EA19AA789A789A59AA50197F1F7D6
:101F40009AA789A782E390E022E330E0F90120819B
:101F50002F7BFC01208380E090E0A0E8BFE38BA70B
:101F60009CA7ADA7BEA720E030E04AEF54E46BA5E4
:101F70007CA58DA59EA50E940512DC01CB018FA733
:101F800098ABA9ABBAAB20E030E040E85FE36FA5C7
:101F900078A989A99AA90E947F1188232CF481E04D
:101FA00090E09CAB8BAB3FC020E03FEF4FE757E4A6
:101FB0006FA578A989A99AA90E94001218164CF554
:101FC00020E030E040E251E46BA57CA58DA59EA504
:101FD0000E940512DC01CB01BC01CD010E948411DD
:101FE000DC01CB019CAB8BAB0FC088EC90E09EABCF
:101FF0008DAB8DA99EA90197F1F79EAB8DAB8BA9F7
:102000009CA901979CAB8BAB8BA99CA9892B69F7E9
:1020100014C06FA578A989A99AA90E948411DC012E
:10202000CB019CAB8BAB8BA99CA998AF8FAB8FA935
:1020300098AD0197F1F798AF8FABE9960FB6F8948A
:10204000DEBF0FBECDBFDF91CF910895CF93DF9359
:1020500000D01F92CDB7DEB79B838A8319820EC052
:102060008981882F90E02A813B81820F931FFC0198
:1020700080810E94210E89818F5F89838981882FC9
:1020800090E02A813B81820F931FFC01808188238D
:1020900039F70F900F900F90DF91CF910895CF9364
:1020A000DF9300D01F92CDB7DEB78A836B838A811E
:1020B000882F90E08130910579F0823091051CF4F1
:1020C000892B39F015C08230910551F0039761F0EA
:1020D0000FC08B8189830CC08B81805C898308C091
:1020E0008B81805F898304C08B81805B8983000042
:1020F000898180680E941C0C0F900F900F90DF91D7
:10210000CF910895CF93DF9300D000D0CDB7DEB745
:1021100089836A835C834B836A8189810E944F1023
:102120008B819C810E9426100F900F900F900F9032
:10213000DF91CF910895CF93DF93CDB7DEB762974C
:102140000FB6F894DEBF0FBECDBF9A8B898B8989FD
:102150009A894AE050E09E012F5F3F4FB9010E94EB
:10216000D312CE0101960E94261062960FB6F89403
:10217000DEBF0FBECDBFDF91CF910895CF93DF9328
:10218000CDB7DEB781E00E941C0CDF91CF9108959E
:10219000CF93DF93CDB7DEB78BE290E022E0FC0176
:1021A00020838AE290E028E9FC01208380E490E02B
:1021B00026E8FC01208380E490E0FC01108289E2A3
:1021C00090E028E0FC012083DF91CF910895CF9328
:1021D000DF931F92CDB7DEB7898300008BE290E0DA
:1021E000FC018081882F90E080729927892BB1F3C0
:1021F0008CE290E02981FC0120830F90DF91CF9148
:102200000895CF93DF93CDB7DEB700008BE290E067
:10221000FC0180818823D4F78CE290E0FC0180816E
:10222000DF91CF910895CF93DF9300D01F92CDB768
:10223000DEB79B838A8319820EC08981882F90E044
:102240002A813B81820F931FFC0180810E94E7104D
:1022500089818F5F89838981882F90E02A813B81E2
:10226000820F931FFC018081882339F70F900F9014
:102270000F90DF91CF9108950F931F93CF93DF932A
:1022800000D01F92CDB7DEB79B838A8319828981E4
:10229000882F90E02A813B818901080F191F0E9435
:1022A0000111F80180830FC089818F5F8983898143
:1022B000882F90E02A813B818901080F191F0E9415
:1022C0000111F80180838981882F90E02A813B8168
:1022D000820F931FFC018081833231F78981882F1F
:1022E00090E02A813B81820F931FFC0110820F90A6
:1022F0000F900F90DF91CF911F910F9108950E9441
:10230000B31108F481E008950E94DF1188F09F570F
:1023100098F0B92F9927B751B0F0E1F0660F771F09
:10232000881F991F1AF0BA95C9F714C0B13091F0FF
:102330000E94F911B1E008950C94F911672F782FDC
:102340008827B85F39F0B93FCCF3869577956795C4
:10235000B395D9F73EF490958095709561957F4F30
:102360008F4F9F4F0895990F0008550FAA0BE0E873
:10237000FEEF16161706E807F907C0F01216130647
:10238000E407F50798F0621B730B840B950B39F487
:102390000A2661F0232B242B252B21F408950A26ED
:1023A00009F4A140A6958FEF811D811D089557FD69
:1023B0009058440F551F59F05F3F71F04795880FB3
:1023C00097FB991F61F09F3F79F08795089512164A
:1023D00013061406551FF2CF4695F1DF08C01616F6
:1023E00017061806991FF1CF8695710561050894A7
:1023F0000895E894BB2766277727CB0197F90895BE
:102400000E94B31108F48FEF08950E9418120C94E3
:1024100089120E947B1238F00E94821220F09523CC
:1024200011F00C9472120C94781211240C94FA117D
:102430000E94D71170F3959FC1F3950F50E0551F7F
:10244000629FF001729FBB27F00DB11D639FAA2709
:10245000F00DB11DAA1F649F6627B00DA11D661F58
:10246000829F2227B00DA11D621F739FB00DA11D79
:10247000621F839FA00D611D221F749F3327A00D33
:10248000611D231F849F600D211D822F762F6A2FCF
:1024900011249F5750409AF0F1F088234AF0EE0F34
:1024A000FF1FBB1F661F771F881F91505040A9F761
:1024B0009E3F510580F00C9472120C94FA115F3F0C
:1024C000E4F3983ED4F3869577956795B795F7959D
:1024D000E7959F5FC1F7FE2B880F911D9695879515
:1024E00097F9089597F99F6780E870E060E0089594
:1024F0009FEF80EC089500240A941616170618061C
:102500000906089500240A941216130614060506F7
:102510000895092E0394000C11F4882352F0BB0F88
:1025200040F4BF2B11F460FF04C06F5F7F4F8F4FEB
:102530009F4F0895DC0101C06D9341505040E0F77A
:102540000895FC0101900020E9F7809590958E0F89
:102550009F1F0895FB01DC014150504048F001905D
:102560000D920020C9F701C01D9241505040E0F784
:102570000895FB0151915523A9F0BF01DC014D9154
:1025800045174111E1F759F4CD010190002049F0C0
:102590004D9140154111C9F3FB014111EFCF81E08D
:1025A00090E0019708954532510520F4423010F033
:1025B0000C94DE12FB011082CB010895BB274A3038
:1025C00031F4992322F4BDE2909581959F4F0C94AC
:1025D000EA12BB27FB015527AA27880F991FAA1FBC
:1025E000A41710F0A41B83955051B9F7A05DAA332E
:1025F00008F0A95DA193009779F7B111B1931192F9
:10260000CB010C940313DC01FC01672F719177233C
:10261000E1F7329704C07C916D9370836291AE179D
:0A262000BF07C8F30895F894FFCF38
:10262A0031322E343536000000004F4B006E6F20D9
:10263A006368616E6765007265616479003E004592
:10264A0052524F52005749464920474F5420495049
:10265A00005749464920444953434F4E4E45435437
:10266A00005749464920434F4E4E4543544544007E
:10267A004641494C0053656E64696E6720415400B7
:10268A00506C6561736520776169742E2E2E004146
:10269A00540041542B52535400446973636F6E6E55
:1026AA00656374696E6720574946490041542B4354
:1026BA00575141500053657474696E67206D6F6499
:1026CA00650041542B43574D4F44453D33005365F4
:1026DA007474696E6720636F6E6E656374696F6E7A
:1026EA00006D6F64650041542B4349504D55583D68
:1026FA003100436F6E6E656374696E6720746F2074
:10270A0041500041542B43574A41503D00222C224C
:10271A00005375636365737300547279206167614E
:10272A00696E2E2E2E0057694669204D6F64756CAE
:10273A006520436F6E6E656374656400434C4F5346
:10274A004544004C454423310046414E233100485C
:10275A00454154455223310041542B434950534576
:10276A004E443D312C31313500474554206874744C
:10277A00703A2F2F3139322E3136382E34332E31EA
:10278A0035322F6861312F77622F656C65637472F9
:10279A006F2E7068703F756E69743D31266C656482
:1027AA003D312666616E3D31266865617465723D0C
:1027BA00312674656D703D323526757064617465B5
:1027CA005F7365727665725F76616C75653D302000
:1027DA00485454502F312E300D0A0D0A006D65648D
:1027EA006F0041542B434946535200494F5400311C
:1027FA00323334313233340038300041542B4349B8
:10280A005053544152543D312C22544350222C22CD
:10281A003139322E3136382E34332E313532222C9C
:10282A0038300047455420687474703A2F2F313974
:10283A00322E3136382E34332E36332F70726F6A79
:10284A00656374732F6861312F77622F656C6563D6
:10285A0074726F2E7068703F756E69743D31266CA4
:0E286A0065643D00010203040506070809002D
:00000001FF
